:020000040800F2
:10000000980500204501000867180008E31400085F
:1000100065180008B1010008E91E00080000000092
:100020000000000000000000000000008B18000825
:10003000B301000800000000891800088D180008AE
:100040005F0100085F0100085F0100085F01000810
:100050005F0100085F0100085F010008B5010008AA
:10006000BB0100085F0100085F0100085F01000894
:100070005F0100085F0100085F0100085F010008E0
:100080005F0100085F0100085F0100085F010008D0
:100090005F0100085F0100085F0100085F010008C0
:1000A0005F0100085F0100085F0100085F010008B0
:1000B000211900085F0100085F0100085F010008C6
:1000C0005F0100085F0100085F0100085F01000890
:1000D0005F010008D11E0008DD1E00085F01000856
:1000E0005F0100085F0100085F0100085F01000870
:1000F0005F0100085F0100085F0100085F01000860
:100100005F0100085F0100082D1900085F01000869
:100110005F0100085F010008391900085F0100084D
:100120005F0100085F0100085F0100085F0100082F
:10013000DFF80CD000F02AF8004800472D1F000817
:10014000980500200648804706480047FEE7FEE77E
:10015000FEE7FEE7FEE7FEE7FEE7FEE7FEE7FEE777
:10016000D918000831010008D2B201E000F8012BD3
:10017000491EFBD270470022F6E710B513460A4627
:1001800004461946FFF7F0FF204610BD064C074D08
:1001900006E0E06840F0010394E807009847103457
:1001A000AC42F6D3FFF7C8FF342000085420000803
:1001B000FEE77047022000F0D5B8042000F0D2B866
:1001C000704700002DE9F05F90F82110002402290B
:1001D00003D004218163012485E001680A6822F0CC
:1001E0000E020A6001680A6822F001020A603F4EAE
:1001F0003E4FB215DFF8F4C0DFF8F090DFF8ECA066
:10020000DFF8E8B0DFF8E4E00168783F1301150299
:10021000ACF1640CA9F15009AAF13C0AABF1280B2E
:10022000AEF1140E4FF48018B14227D9B9420ED066
:10023000614512D049451DD0514518D0594518D0B7
:10024000714501D1424615E0294EB14201D101224A
:1002500010E0274E1436B14201D110220AE0244E9C
:100260002836B14206D0224A3C32914201D11A4688
:1002700000E02A461E49091F0A602BE0B94213D04C
:10028000614517D0494522D051451DD059451DD053
:10029000714501D142461AE0B14202D14FF080725D
:1002A00015E0134EB14201D1012210E0104E143678
:1002B000B14201D110220AE00D4E2836B14206D0DB
:1002C0000B4A3C32914201D11A4600E02A460749C6
:1002D00080394A60012180F82110002180F8201027
:1002E000416B01B188472046BDE8F09F8000024085
:1002F0000804024070B5044600F03EF90546601C53
:1003000002D004480078044400F036F9401BA042B3
:10031000FAD370BD0800002010B50E4C02280BD097
:10032000042808D11420FFF7E5FF04210A4800F053
:1003300019F90420206010BD084800780028FAD080
:100340001420FFF7D7FF0221054800F00BF9022027
:10035000F0E70000140401400010014000000020FC
:10036000000C0140044910B50A68024202D008603E
:10037000FFF7D2FF10BD0000140401402DE9F84F33
:10038000DFF8B8A100220AF1040B144601274FF050
:100390000F090BF1040E00BF0B6807FA04F52B40A0
:1003A000AB4274D1DFF898C14E68A6EB0C086645E5
:1003B0002BD00DDC032E34D005DC36B3012E19D042
:1003C000022E2FD11BE0112E16D0122E2AD119E0A9
:1003D000B8F5881F19D006DCB8F5803F15D0B8F500
:1003E000801F1FD111E0B8F5001F0ED0B8F5041F13
:1003F00018D10AE0CA6815E0CA68121D12E0CA687E
:1004000008320FE0CA680C320CE08A682AB1012A6F
:100410004FF0080203D0456104E0042202E00561C8
:1004200000E00022FF2B01D8064601E000F104069F
:100430004FEA840501D9A5F12005D6F800C009FAD4
:1004400005F82CEA080C02FA05F54CEA050CC6F88A
:1004500000C04D68ED006AD53A4DAE6946F0010620
:10046000AE61AD6924F0030605F001050095364D37
:1004700006EB050CDCF80850A6074FEA167809FAD7
:1004800008F6B543314EB04202D100261AE04EE0E4
:100490002F4EB04201D1012614E02E4EB04201D1C0
:1004A00002260FE02C4EB04201D103260AE02B4E6B
:1004B000B04201D1042605E0294EB04201D1052603
:1004C00000E0062606FA08F62E43CCF808604D68D0
:1004D000DAF80060ED03554601D51E4300E09E4367
:1004E0002E604D68AD0305D5DBF800601E43CBF8E8
:1004F000006004E0DBF800509D43CBF800504D68ED
:10050000DEF80060ED02754601D51E4300E09E4313
:100510002E604D68AD0205D5084D0C352E681E4382
:100520002E6004E0054E0C3635689D433560641C32
:10053000102CFFF431AFBDE8F88F0000000401403B
:1005400000001110001002400000014000080140AE
:10055000000C01400010014000140140001801404F
:10056000001C01408068084000D0012070470AB19B
:10057000016170470904FBE701488068704700008B
:1005800008000020024881680278114481607047A9
:1005900008000020074810B5016841F01001016013
:1005A000032000F073F8002000F006F800F024F8B3
:1005B000002010BD0020024070B50D4D04464FF4E0
:1005C0007A712878B1FBF0F00A490968B1FBF0F0C4
:1005D00000F0FCFA48B9102C07D200222146501E28
:1005E00000F034F800206C6070BD012070BD000088
:1005F00008000020140000200C4808B5816941F073
:1006000001018161816901F001010091C16941F03D
:100610008051C161C06900F0805000900448416879
:1006200021F0E06141F08061416008BD00100240AE
:100630000000014000F01F020121914040098000AC
:1006400000F1E020C0F8001170470000F0B40E4B3C
:100650001B680C46C3F30223C3F10705042D00D920
:100660000425191D072901D2002300E0DB1E012605
:1006700006FA05F1491E214099409E40761E16401B
:100680003143F0BC01F0F0B80CED00E0064900F099
:10069000070208684FF6FF03184040EA0220034AA9
:1006A00010430860704700000CED00E00000FA0500
:1006B0002DE9F047DFF8548105460E46D8F80000D2
:1006C00000F00700B0420CD2D8F8001021F007016A
:1006D0003143C8F80010D8F8000000F00700B0421D
:1006E0006FD128684A4C810712D5400703D560684E
:1006F00040F4E06060602878000703D5606840F44B
:10070000605060606068A96820F0F0000843606095
:100710002878C00744D06868012816D021680228CC
:1007200016D0890700294CDA616821F003010143E2
:100730006160FFF721FF6968074641F288300129AF
:100740000ED00229814618D026E021688903E9E706
:100750008901E7E7FFF710FFC11B494501D918E000
:1007600081466068C0F381000128F3D118E000BF22
:10077000FFF702FFC11B49450BD86068C0F3810039
:100780000228F5D10CE000BFFFF7F6FEC11B49457A
:1007900002D90320BDE8F087606810F00C0FF3D198
:1007A000D8F80010404601F00701B1420BD90168AA
:1007B00021F0070131430160006800F00700B042FA
:1007C00001D00120E6E72878400705D56068E96890
:1007D00020F4E060084360602878000706D5606870
:1007E000296920F4605040EAC100606000F036F8EA
:1007F0006168084AC1F30311515CC84006490860AA
:100800000020FFF7D9FE0020C4E7000000200240CE
:10081000001002401C200008140000200448054974
:1008200000684968044AC1F30221515CC84070471E
:1008300014000020001002402C2000080448054944
:1008400000684968044AC1F3C221515CC84070473E
:1008500014000020001002402C20000812A185B0D6
:100860000FC98DE80F0014A0144A00680490516865
:10087000134801F00C03042B10D0082B0ED1C1F348
:100880008343C9031DF803000AD5516804AAC1F3C4
:100890004041515C0A4A5043B0FBF1F005B070474B
:1008A00008494843FAE7000002030405060708095F
:1008B0000A0B0C0D0E0F1010010200000010024078
:1008C00000127A0000093D002DE9F84F0446007837
:1008D000B94DC00748D06868C0F38100012807D02F
:1008E0006868C0F38100022809D16868C00306D592
:1008F0002868800338D5606800286FD034E06068CD
:10090000B0F5803F0BD010B1B0F5A02F11D0286802
:1009100020F480302860286820F4802002E02868D5
:1009200040F480302860606888B1FFF725FE0646F5
:1009300009E0286840F480202860F0E7FFF71CFEFB
:10094000801B642875D828688003F7D50CE0FFF772
:1009500013FE064605E000BFFFF70EFE801B64286D
:10096000F0D828688003F7D42078944E80074FF0A1
:1009700001094FF000083BD5686810F00C0F07D054
:100980006868C0F38100022809D16868C00306D4F2
:100990002868800714D5206901281FD110E020693C
:1009A000B0B1C6F80090FFF7E7FD074605E000BFCD
:1009B000FFF7E2FDC01B0228C4D828688007F7D5DE
:1009C0002868616920F0F80040EAC10028600FE063
:1009D000C6F80080FFF7D0FD074606E0E9E000BF5B
:1009E000FFF7CAFDC01B022823D828688007F7D468
:1009F000207800072CD57248A169D9B1C0F80090C1
:100A0000FFF7BAFD074604E0FFF7B6FDC01B02285A
:100A10000FD8686A8007F7D56A484FF4FA51006822
:100A2000B0FBF1F0009000BF0098411E0091FAD297
:100A30000EE080E0C0F80080FFF79EFD074604E06E
:100A4000FFF79AFDC01B022875D8686A8007F7D4A3
:100A50002078400760D5E8690027C00008D4E8691D
:100A600040F08050E861E869012700F08050009074
:100A700055480168C90513D40168834641F4807163
:100A80000160FFF779FD824606E000BFFFF774FDC5
:100A9000A0EB0A0064284ED8DBF80000C005F5D5AD
:100AA000E06801280AD008B1052813D0286A20F090
:100AB00001002862286A20F0040002E0286A40F061
:100AC00001002862E06841F2883B98B1FFF754FDCD
:100AD00082460BE0286A40F004002862EEE700BF7F
:100AE000FFF74AFDA0EB0A0159455AD8286A80074A
:100AF000F6D50CE0FFF740FD824605E0FFF73CFD30
:100B0000A0EB0A0159454CD8286A8007F6D41FB1DA
:100B1000E86920F08050E861E06988B36968C1F352
:100B20008101022945D00228C6F8608004D0FFF771
:100B300023FD044638E034E0FFF71EFD074604E0DD
:100B4000FFF71AFDC01B02282BD828688001F7D4B4
:100B5000206AB0F5803F05D16868A16820F40030B4
:100B600008436860D4E908010843696821F47411F6
:100B700008436860C6F86090FFF7FEFC044606E094
:100B800015E000BFFFF7F8FC001B022809D8286811
:100B90008001F7D50BE000BFFFF7EEFC001B022839
:100BA00002D90320BDE8F88F28688001F4D4002022
:100BB000F8E70120F6E70000001002400000424282
:100BC00080044242140000200070004010B5401E16
:100BD000B0F1807F01D3012010BD4FF0E0246061AF
:100BE0000F21601700F040FE0020A0610720206167
:100BF000002010BD7047704730B590F83C20012AA6
:100C000020D0012280F83C20022380F83D30036888
:100C10005C6824F070045C6003685C680D682C43B9
:100C20005C6003689C6824F080049C6003689C6896
:100C300049680C439C6080F83D20002180F83C10FE
:100C4000084630BD022030BD10B5040003D094F832
:100C50003D0010B107E0012010BD002084F83C00E9
:100C6000204600F00DF8022084F83D00211D206888
:100C700000F068FE012084F83D00002010BD000057
:100C800008B501681D48B1F1804F11D01C4A91424E
:100C90001DD1C16941F00801C161C069002200F0A5
:100CA0000800009011463220FFF7D0FC32201FE0F0
:100CB000C16941F00101C161C069002200F0010079
:100CC000009002211C20FFF7C1FC1C2010E00D4AFF
:100CD000914211D1C16941F01001C161C069002286
:100CE00000F01000009011463620FFF7AFFC3620D0
:100CF000BDE80840FFF79EBC08BD000000100240A0
:100D0000000C004000100040022180F83D100168F6
:100D10000A6842F001020A60012180F83D100020BB
:100D200070470168CA6842F00102CA600068016841
:100D300041F00101016000207047022180F83D1060
:100D400001680A6A41F211131A4207D10A6A9B101C
:100D50001A4203D10A6822F001020A60012180F8D8
:100D60003D100020704770B5044690F83C00012803
:100D700017D0012584F83C50022084F83D002068FB
:100D8000826822F0770222F47F428260086850284D
:100D900037D00DDC202859D005DC88B3102841D18C
:100DA00051E0022070BD302853D040283AD13FE0B6
:100DB00060282ED070280BD0B0F5805F03D0B0F53E
:100DC000005F2FD110E02068816821F0070115E055
:100DD000CB68D1E90121206800F005FE2168886810
:100DE00040F0770088601DE0CB68D1E901212068E0
:100DF00000F0F9FD2068816841F48041816011E0D4
:100E00001EE0CA684968206800F0C2FE50212068D0
:100E100006E0CA684968206800F0CBFE60212068BF
:100E200000F0EBFD84F83D50002084F83C0070BDDC
:100E3000CA684968206800F0ABFE40212068EFE7EF
:100E400000212068ECE710212068E9E720212068D4
:100E5000E6E730212068E3E7704770B50446006894
:100E600001694FF00005C943890715D4C168C9431A
:100E7000890711D4E91E016101202077206880696B
:100E80008007204602D0FFF7E7FF04E000F0D4F827
:100E9000204600F069F9257720680169C9434907B0
:100EA00017D4C168C943490713D46FF00401016125
:100EB000022020772068806910F4407F204602D00D
:100EC000FFF7CAFF04E000F0B7F8204600F04CF945
:100ED000257720680169C943090716D4C168C94349
:100EE000090712D46FF008010161042020772068FF
:100EF000C0698007204602D0FFF7AEFF04E000F093
:100F00009BF8204600F030F9257720680169C94335
:100F1000C90617D4C168C943C90613D46FF01001BC
:100F20000161082020772068C06910F4407F2046C6
:100F300002D0FFF791FF04E000F07EF8204600F0B9
:100F400013F9257720680169C943C90708D1C16829
:100F5000C943C90704D1891E0161204600F022F966
:100F600020680169C943090609D4C168C943090653
:100F700005D46FF0800101612046FFF73BFE206839
:100F80000169C943490609D4C168C943490605D462
:100F90006FF040010161204600F01CF920680169F2
:100FA000C94389060BD4C168C943890607D46FF0C9
:100FB000200101612046BDE87040FFF71CBE70BDF6
:100FC00000B585B000210091019102910391154B6C
:100FD0000268154802219A420FD1826942F0080244
:100FE00082618069039100F0080004904FF4407022
:100FF000CDE9000169460D4810E00D4B9A420FD132
:10100000826942F0040282618069039100F0040069
:1010100004900120CDE9000169460648FFF7AEF9CA
:1010200005B000BD0008004000100240000C014067
:10103000000C004000080140704770B5044690F86D
:101040003C000D4601280DD0012684F83C600220AA
:1010500084F83D0042B1042A18D0082A2AD00C2A6C
:101060004DD139E0022070BD206800F0CFFC20682F
:10107000816941F0080181612068816921F00401E2
:101080008161206881692A69114311E0206800F0BC
:10109000EDFC2068816941F400618161206881690B
:1010A00021F480618161206881692A6941EA022115
:1010B000816124E0206800F00FFD2068C16941F0E3
:1010C0000801C1612068C16921F00401C161206883
:1010D000C1692A69114311E0206800F031FD2068E0
:1010E000C16941F40061C1612068C16921F4806176
:1010F000C1612068C1692A6941EA0221C16184F89D
:101100003D60002084F83C0070BD10B5040003D0A1
:1011100094F83D0010B107E0012010BD002084F8D4
:101120003C00204600F00CF8022084F83D00211D10
:10113000206800F007FC012084F83D00002010BD6D
:1011400008B500680649884208D10648C16941F0DF
:101150000401C161C06900F00400009008BD0000F6
:1011600000080040001002407047000010B504461F
:101170000068012200F02CFC08492068884202D057
:101180000749884203D1416C41F400414164206821
:10119000016841F001010160002010BD002C0140F8
:1011A000003401400749884204D100220821064842
:1011B000FFF7DDB90549884203D105484168491C5C
:1011C000416070471800002000100140D800002046
:1011D000000000207047704770B502680446106830
:1011E000D168536910F00F0F50D003F0010501F4DE
:1011F000907635435DD0C20705D0CA0503D5E26BB2
:1012000042F00102E263420705D5DA0703D0E26B40
:1012100042F00202E263820705D5DA0703D0E26BEF
:1012200042F00402E263020705D5DA0703D0E26B5D
:1012300042F00802E263E26B002A33D0800604D554
:10124000880602D5204600F0DCFC20684069E16B8E
:10125000C0F38010090700D428B3204600F0C3FC77
:101260002068416949061AD5416921F04001416170
:10127000606BA0B11B494163606BFEF7A3FF0028C0
:1012800010D0606B416BBDE870400847830610D5F5
:101290008B060ED52046BDE8704000F0B2BC20465B
:1012A000FFF799FF70BD2046FFF795FF0020E06330
:1012B00070BD030606D50B0604D52046BDE8704078
:1012C00000F0A2BD4006F3D54806F1D5D16820460E
:1012D00021F04001D160202184F8391000F000F99C
:1012E00070BD0000D71B000870B5040004D094F84E
:1012F0003900002510B106E0012070BD84F8385097
:10130000204600F023F8242084F839002068C168C2
:1013100021F40051C160204600F0BEFC2068016944
:1013200021F4904101612068416921F02A01416165
:101330002068C16841F40051C160E563202084F851
:10134000390084F83A00002070BD000070B586B006
:10135000002400940194029403942E4E03682E49B5
:10136000022003222D4DB34226D18B6943F48043E2
:101370008B618B6903F4804304938B6943F004030E
:101380008B618969039201F0040104910102CDE9A6
:10139000001069462846FEF7F1FF2815CDE9000444
:1013A000694628460294FEF7E9FF00220321252022
:1013B000FFF74CF9252028E0194EB34227D1CB691D
:1013C00043F40033CB61CB6903F4003304938B699E
:1013D00043F004038B618969039201F004010491D5
:1013E0000421CDE9001069462846FEF7C7FF082012
:1013F000CDE90004694628460294FEF7BFFF0022AB
:1014000003212620FFF722F92620FFF713F906B063
:1014100070BD00000038014000100240000801408B
:101420000044004070472DE9F843044690F8390025
:101430001F4616460D46202850D1A5B19EB194F8FE
:10144000380001284AD0012084F838004FF0000805
:10145000C4F83C80212084F83900FFF78DF8A68479
:101460008146E68426E00120BDE8F883E08C401E3A
:10147000E084A0684B46B0F5805F4FF000024FF06B
:1014800080012046009703D000F0EFFCE8B90DE0A2
:1014900000F0EBFCC8B928882168C0F30800486058
:1014A000206908B16D1C05E0AD1C03E0216815F84A
:1014B000010B4860E08C0028D8D14B460022402127
:1014C0002046009700F0D1FC08B10320CCE7202093
:1014D00084F8390084F838800020C5E70220C3E78B
:1014E0007047FEE72DE9F04385B00024474800949B
:1014F000019402940394816941F020018161816922
:1015000001F020010491816941F01001816181693C
:1015100001F010010491816941F004018161816948
:1015200001F004010491816941F008018161806941
:10153000374F00F008000490002209213846FFF7D9
:1015400016F8DFF8D080002210214046FFF70FF890
:10155000DFF8C490002280214846FFF708F80920F0
:101560000126CDE90006022569463846CDE9024547
:10157000FEF704FFCDE90054694638460294FEF7B1
:10158000FDFE042000902548CDE901046946384657
:10159000FEF7F4FE1020CDE9000669464046CDE98D
:1015A0000245FEF7EBFE8027CDE900746946404610
:1015B0000294FEF7E3FECDE90064694648460294D2
:1015C000FEF7DCFE16480095CDE901046946484661
:1015D000FEF7D4FECDE9007669464846CDE90245DE
:1015E000FEF7CCFE002201210720FFF72FF807208D
:1015F000FFF720F8002202210820FFF727F8082033
:10160000FFF718F805B0BDE8F083000000100240B5
:101610000010014000080140000C014000001110C2
:101620000000211010B586B00024174800940194E2
:101630000294039404944FF080410594016041F6B4
:101640003F7141601021816040F2E731C0E903142D
:101650008461FFF7F9FA08B1FEF7B2FD4FF480504C
:10166000009069460848FFF77EFB08B1FEF7A8FD29
:10167000049404A904480594FFF7BEFA002801D099
:10168000FEF79EFD06B010BD1800002010B58AB010
:10169000002407941C2168460894FEF76CFD1B4843
:1016A000194901600721C0E9011440F2F311C0E9B2
:1016B000031480218161FFF728FD08B1FEF780FD4A
:1016C000079407A911480894FFF796FA08B1FEF7A6
:1016D00077FD6020CDE900040294082269460B489A
:1016E0000494FFF7AAFC08B1FEF76AFD0C226946D4
:1016F0000648FFF7A2FC08B1FEF762FD0348FFF7BA
:101700005FFC0AB010BD0000000800405800002037
:1017100010B58EB000240794089409940A940B9491
:101720001C2168460C94FEF726FD1F481D490160E8
:101730000F21C0E9011442F20F71C0E903148021A6
:101740008161FFF781FA08B1FEF73AFD4FF480504E
:10175000079007A91448FFF706FB08B1FEF730FD14
:101760001148FFF7D2FC08B1FEF72AFD0B940BA934
:101770000D480C94FFF740FA08B1FEF721FD6020F8
:10178000CDE9000402940022694607480494FFF75B
:1017900054FC08B1FEF714FD0348FFF711FC0EB02E
:1017A00010BD0000000C0040980000201CB5002473
:1017B0000F4800940D49019401600721C0E901140C
:1017C0004FF6FE71C16080218161FFF73DFA08B1DB
:1017D000FEF7F6FC0094694605480194FFF70CFA01
:1017E000002801D0FEF7ECFC1CBD000000100040FA
:1017F000D80000200C4810B50A4901604FF4E131CF
:101800004160002181600C22C160C0E90412816145
:10181000C161FFF769FD002803D0BDE81040FEF765
:10182000CFBC10BD00380140180100200C4810B595
:101830000A4901604FF4E1314160002181600C22CE
:10184000C160C0E904128161C161FFF74DFD00284C
:1018500003D0BDE81040FEF7B3BC10BD004400400B
:1018600058010020FEE770470907090E002806DA34
:1018700000F00F0000F1E02080F8141D704700F127
:10188000E02080F80014704770477047FEF77ABE7A
:1018900030B58FB028216846FEF76DFC14210AA8E8
:1018A000FEF769FC012002250490009510200590A8
:1018B0000024CDE9075468460994FFF705F80F2086
:1018C0000A90CDE90B540D9400210AA80E94FEF75E
:1018D000EFFE0FB030BD00000D48016841F001017E
:1018E000016041680B4A1140416001680A4A114099
:1018F0000160016821F480210160416821F4FE014A
:1019000041604FF41F0181600449C00308607047C3
:10191000001002400000FFF8FFFFF6FE08ED00E0B7
:101920000148FFF79ABA0000180000200148FFF7AD
:1019300094BA0000980000200148FFF78EBA00001A
:10194000D8000020F0B502681C4B1D4D1D4E1E4FE7
:101950001E4C4FF0804C984209D0A04207D0604501
:1019600005D0A84203D0B04201D0B84204D122F041
:10197000700E4A6842EA0E02984209D0A04207D08F
:10198000604505D0A84203D0B04201D0B84203D18F
:1019900022F44075CA682A4322F080054A692A4326
:1019A00002608A68C2620A688262984201D0A042DC
:1019B00001D10969016301214161F0BD002C0140A1
:1019C0000004004000080040000C004000340140CA
:1019D00010B50123046A8B409C430462036A8A4069
:1019E0001343036210BD10B5846842EA032224F455
:1019F0007F440A432243826010BD826822F0700255
:101A00000A4342F00701816070470000F0B5026AA6
:101A100022F001020262036A42688469124E24F0D5
:101A200073050C682C4323F002058B682B430D4D86
:101A3000A84201D0B04205D123F00807CB683B4350
:101A400023F00403A84201D0B04205D14D6922F42D
:101A5000407215438A692A43426084614968416340
:101A60000362F0BD002C014000340140F0B5026A71
:101A700022F010020262026A436884690D6824F44D
:101A8000E64444EA05248D6822F0200242EA051269
:101A90000F4D104EA84201D0B04206D1CF6822F0BF
:101AA000800242EA071222F04002A84201D0B0426E
:101AB00007D14D6923F4406343EA85038D6943EA06
:101AC000850343608461496881630262F0BD000060
:101AD000002C014000340140F0B5026A22F480720B
:101AE0000262026A4368C46922F4007224F073053A
:101AF0000C68124E2C438D6842EA05220E4DA84216
:101B000001D0B04206D1CF6822F4006242EA072237
:101B100022F48062A84201D0B04207D14D6923F47B
:101B2000405343EA05138D6943EA05134360C461DA
:101B30004968C1630262F0BD002C014000340140DD
:101B400030B5026A22F480520262046A4268C369B4
:101B50000D6823F4E64343EA05238D6824F400541A
:101B600044EA0534084DA84202D0084DA84204D1E9
:101B70004D6922F4804242EA85124260C36149689D
:101B80000164046230BD0000002C014000340140BB
:101B900010B5036A046A24F001040462846924F025
:101BA000F00444EA021423F00A020A438461026248
:101BB00010BD10B5036A23F0100303628369046A41
:101BC00023F4704343EA023224F0A00343EA0111F4
:101BD0008261016210BD10B5406A0021C185C184D7
:101BE000FFF7F9FA10BD0168CA6822F49072CA6062
:101BF00001684A6922F001024A61202180F83A1006
:101C0000704710B590F83A10222901D0022010BD7B
:101C10008168B1F5805F11D00169002901681FD08A
:101C2000496801F07F03816A4A1C82620B70C18D92
:101C3000491E0904090CC18518D02BE00269816A8C
:101C4000002A0268526805D0D2B20A80816A491C13
:101C50008162ECE7C2F308020A80816A891CF7E717
:101C60004A68816A4B1C83620A70E0E70168CA68AF
:101C700022F02002CA600168CA6822F48072CA6039
:101C800001684A6922F001024A61202180F83A1075
:101C9000FFF7C8FB002010BD2DE9F04104460068A5
:101CA0000169E26821F44051114301612169A06892
:101CB0000843616908432168CA6841F20C639A438A
:101CC0000243CA6020684169A26921F4407111434E
:101CD00041614C4920686425322688423CD1FEF798
:101CE000ADFD00EBC00101EB001061688900B0FBA5
:101CF000F1F7FEF7A3FD00EBC00101EB00106168F6
:101D0000B0468900B0FBF1F0B0FBF5F06FF01801C0
:101D1000484307EB800106EB0110B0FBF5F000F043
:101D2000F006FEF78BFD00EBC00101EB00106168CF
:101D30008900B0FBF1F0B0FBF5F006EB0016FEF702
:101D40007DFD00EBC00101EB001061688900B0FB74
:101D5000F1F7FEF773FD3BE0FEF760FD00EBC0011D
:101D600001EB001061688900B0FBF1F7FEF756FD4A
:101D700000EBC00101EB00106168B0468900B0FBC8
:101D8000F1F0B0FBF5F06FF01801484307EB80016C
:101D900006EB0110B0FBF5F000F0F006FEF73EFD9B
:101DA00000EBC00101EB001061688900B0FBF1F0AD
:101DB000B0FBF5F006EB0016FEF730FD00EBC001BE
:101DC00001EB001061688900B0FBF1F7FEF726FD1A
:101DD00000EBC00101EB001061688900B0FBF1F07D
:101DE000B0FBF5F06FF01801484307EB800108EBFA
:101DF0000110B0FBF5F0216800F00F00304488605E
:101E0000BDE8F0810038014090F83910212901D057
:101E1000022070478168B1F5805F016A0BD04A1CCF
:101E20000262026809785160C18C491E0904090CDC
:101E3000C1840ED017E009880268C1F3080151601F
:101E400001690029016A02D0491C0162ECE7891C82
:101E5000FBE70168CA6822F08002CA600068C168B6
:101E600041F04001C160002070472DE9F0419846E3
:101E700017460E460446069D1DE0681C1BD02DB17A
:101E8000FEF77AFBA0EB0800A84214D92068C168CD
:101E900021F4D071C1602068416921F001014161E4
:101EA000202084F8390084F83A00002084F83800B3
:101EB0000320BDE8F0812068006836EA000004D005
:101EC0000020B842D9D00020F3E70120F9E7000054
:101ED0000148FFF781B90000180100200148FFF711
:101EE0007BB9000058010020FEE702E008C8121F7D
:101EF00008C1002AFAD170477047002001E001C1F3
:101F0000121F002AFBD1704710B50648FEF715FFD7
:101F100004480068406A04494968C1EB014108442B
:101F200010BD0000D80000200000002008B5FEF71A
:101F300031FBFFF7ADFCFFF7D5FAFFF7A7FBFFF783
:101F400059FCFFF773FCFFF76DFBFFF7E1FBFFF7B1
:101F50002DFC00F041F81E48FEF7E3FE4FF47A74C2
:101F600000F04EF80020FEF7C5F9FFF7CDFF90FB1B
:101F7000F4F08DF800000A23012269461548FFF7A6
:101F800052FA00F03DF80A20FEF7B4F9FFF7BCFF63
:101F900090FBF4F08DF800000A23012269460D48F9
:101FA000FFF741FA00F02CF81420FEF7A3F9FFF731
:101FB000ABFF90FBF4F08DF800000A230122694684
:101FC0000448FFF730FA2046FEF794F9C8E700000E
:101FD000180000201801002010B508210648FFF75E
:101FE000C5F80C210448FFF7C1F8BDE810400021F6
:101FF0000248FFF7BBB800005800002098000020FE
:102000000449002048600449096848620248FEF714
:102010007BBE000000000020D8000020000000006F
:102020000000000001020304060708090000000088
:1020300001020304542000080000002018000000E2
:10204000EA1E00086C20000818000020800500002F
:10205000FA1E00080100000000000000010000005E
:0C206000100000000000000000A24A0474
:0400000508000131BD
:00000001FF
